:020000040000fa
:080000000001040000000000f3
:020000040000fa
:04000800c80100002b
:020000040000fa
:04000c00c801000027
:020000040000fa
:04001000c801000023
:020000040000fa
:04001400c80100001f
:020000040000fa
:04001800c80100001b
:020000040000fa
:04001c00c801000017
:020000040000fa
:04002000c801000013
:020000040000fa
:04002400c80100000f
:020000040000fa
:04002800c80100000b
:020000040000fa
:04002c00c801000007
:020000040000fa
:04003000c801000003
:020000040000fa
:04003400c8010000ff
:020000040000fa
:04003800c8010000fb
:020000040000fa
:04003c00c8010000f7
:020000040000fa
:04004000c8010000f3
:020000040000fa
:04004400c8010000ef
:020000040000fa
:04004800c8010000eb
:020000040000fa
:04004c00c8010000e7
:020000040000fa
:04005000c8010000e3
:020000040000fa
:04005400c8010000df
:020000040000fa
:04005800c8010000db
:020000040000fa
:04005c00c8010000d7
:020000040000fa
:04006000c8010000d3
:020000040000fa
:04006400c8010000cf
:020000040000fa
:04006800c8010000cb
:020000040000fa
:04006c00c8010000c7
:020000040000fa
:04007000c8010000c3
:020000040000fa
:04007400c8010000bf
:020000040000fa
:04007800c8010000bb
:020000040000fa
:04007c00c8010000b7
:020000040000fa
:04008000c8010000b3
:020000040000fa
:04008400c8010000af
:020000040000fa
:04008800c8010000ab
:020000040000fa
:04008c00c8010000a7
:020000040000fa
:04009000c8010000a3
:020000040000fa
:04009400c80100009f
:020000040000fa
:04009800c80100009b
:020000040000fa
:04009c00c801000097
:020000040000fa
:0400a000c801000093
:020000040000fa
:0400a400c80100008f
:020000040000fa
:0400a800c80100008b
:020000040000fa
:0400ac00c801000087
:020000040000fa
:0400b000c801000083
:020000040000fa
:0400b400c80100007f
:020000040000fa
:0400b800c80100007b
:020000040000fa
:0400bc00c801000077
:020000040000fa
:0400c000c801000073
:020000040000fa
:0400c400c80100006f
:020000040000fa
:0400c800c80100006b
:020000040000fa
:0400cc00c801000067
:020000040000fa
:0400d000c801000063
:020000040000fa
:0400d400c80100005f
:020000040000fa
:0400d800c80100005b
:020000040000fa
:04010800c80100002a
:020000040000fa
:04010c00c801000026
:020000040000fa
:04011000c801000022
:020000040000fa
:04011400c80100001e
:020000040000fa
:04011800c80100001a
:020000040000fa
:04011c00c801000016
:020000040000fa
:04012000c801000012
:020000040000fa
:04012400c80100000e
:020000040000fa
:04012800c80100000a
:020000040000fa
:04012c00c801000006
:020000040000fa
:04013000c801000002
:020000040000fa
:04013400c8010000fe
:020000040000fa
:04013800c8010000fa
:020000040000fa
:04013c00c8010000f6
:020000040000fa
:04014000c8010000f2
:020000040000fa
:04014400c8010000ee
:020000040000fa
:04014800c8010000ea
:020000040000fa
:04014c00c8010000e6
:020000040000fa
:04015000c8010000e2
:020000040000fa
:04015400c8010000de
:020000040000fa
:04015800c8010000da
:020000040000fa
:04015c00c8010000d6
:020000040000fa
:04016000c8010000d2
:020000040000fa
:04016400c8010000ce
:020000040000fa
:04016800c8010000ca
:020000040000fa
:04016c00c8010000c6
:020000040000fa
:04017000c8010000c2
:020000040000fa
:04017400c8010000be
:020000040000fa
:04017800c8010000ba
:020000040000fa
:04017c00c8010000b6
:020000040000fa
:04018000c8010000b2
:020000040000fa
:04018400c8010000ae
:020000040000fa
:04018800c8010000aa
:020000040000fa
:04018c00c8010000a6
:020000040000fa
:04019000c8010000a2
:020000040000fa
:04019400c80100009e
:020000040000fa
:04019800c80100009a
:020000040000fa
:04019c00c801000096
:020000040000fa
:0401a000c801000092
:020000040000fa
:0401a400c80100008e
:020000040000fa
:0401a800c80100008a
:020000040000fa
:0401ac00c801000086
:020000040000fa
:0401b000c801000082
:020000040000fa
:0401b400c80100007e
:020000040000fa
:0401b800c80100007a
:020000040000fa
:0401bc00c801000076
:020000040000fa
:0401c000c801000072
:020000040000fa
:0401c400c80100006e
:020000040000fa
:0401c800c80100006a
:020000040000fa
:0401cc00c801000066
:020000040000fa
:0401d000c801000062
:020000040000fa
:0401d400c80100005e
:020000040000fa
:0401d800c80100005a
:020000040000fa
:100200000f8020000eff20000e018800000000007b
:10021000000020000000e000020032000001200089
:1002200020028800140007005b0007000000e000c7
:1002300003003a0000002000010020000200370007
:100240000000200001002000810f7000010032003a
:1002500014000700000020000000e000020032004f
:1002600000000200000000003e0302000000000049
:100270000040da000000fe004440a9000002200017
:100280000000e0000300320000002000a001880010
:100290004440a800000006008a1f78008b1f7800e9
:1002a0000000060091018800800478000000eb0047
:1002b0001a003700e284440032a0b4009905ba0065
:1002c000e284440032a0b4009906ba00e2844400fb
:1002d00032a0b4000006eb00476fde00fd07b2005d
:1002e000636ce10003003a00ebff07000000eb0045
:1002f0000a003700606ce10004003a00005deb008a
:100300008b05e900fdff3e00040037006168e10055
:10031000010032000086eb000b00070019c7ba008d
:100320001905ba000e04e00003003a000a00e000dc
:10033000e0ff3a0000000600fe07b2009e018800c0
:100340008a047800f5ff3700395dba008b05e900b3
:100350000c003200295dba008b05e900080032006c
:100360000c00e00003003a00e284440032a0b40034
:10037000f5ff370019ddba008b05e900faff3a00f6
:100380008904e800e184440032a0b40000000600c3
:0c0390000040da000000fe000000050044
:020000040000fa
:10039c00486f00006c610000204300006f6d00008e
:1003ac006f20000065730000746100007300000092
:1003bc002053000075730000637200006962000036
:1003cc0065740000652000003a4400002000000025
:020000040000fa
:1003dc000000fa00000f200090168800c742a90008
:1003ec00c762a900c722a90000c3b3001a00070006
:1003fc0000dc250001002000b400070000c3b3009e
:10040c001500070000dc250001002000af000700ec
:10041c0020c3b3001000070000dc25000100200001
:10042c00aa00070080c2b3000b000700c0c0b300d5
:10043c000900070010c0b3000700070060c0b3003c
:10044c000500070000f02900410220009f00070072
:10045c000080fa00000006000200fa00004f78004d
:10046c00a1168000000f200000806000a0168800fc
:10047c001e80fb004400de00004078000080fb0082
:10048c00ef006000a016800001007000a01688002c
:10049c00cb42a900cb22a900800120000100200042
:1004ac008a000700cb62a800800120000100200018
:1004bc0086000700cb62a90000dc250001002000ab
:1004cc0082000700a1168000000f20000080600051
:1004dc00a01688001e80fb00ef006000a0168000b4
:1004ec0001007000a0168800cb42a900cb22a90005
:1004fc00800120000100200074000700cb62a800de
:10050c00800120000100200070000700cb62a900d0
:10051c0000f82400210120006c0007000080fa0084
:10052c00000006000200fa00004f7800a1168000bf
:10053c00000f200000806000a01688001e80fb00c9
:10054c004400de00004078000080fb00ef006000fb
:10055c00a016800001007000a0168800cb42a900f4
:10056c00cb22a800800120000100200057000700ca
:10057c00cb62a8008001200001002000530007007e
:10058c00cb62a90000dc2500010020004f00070011
:10059c00a1168000000f200000806000a0168800cb
:1005ac001e80fb00ef006000a016800001007000b0
:1005bc00a0168800cb42a900cb22a8008001200005
:1005cc000100200041000700cb62a8008001200040
:1005dc00010020003d000700cb62a90000f82400b8
:1005ec0021012000390007000080fa0000000600fd
:1005fc000400fa00000f7800110798001e00780024
:10060c000000e000060034001e00900080407800de
:10061c0000ccb30000c040008fff0700050037007e
:10062c001e0090008040780000c8b30000c040005d
:10063c0089ff07000080fa00000006000200fa00a3
:10064c00000f7800040037001e007800104078007e
:10065c00b4ff07001e0fe8001e0078001040780061
:10066c000004e000f8ff3a000080fa0000000600e9
:10067c000000fa00f0ff21004015880054ff07002d
:10068c005100200010002000d9ff0700500420006a
:10069c00a4ff0700110020000000eb00d4ff0700ae
:1006ac00e01c2800e5ff070000b02100710b2000c2
:1006bc0006000700110020000000eb00ccff070033
:0c06cc00e01d2800ddff0700ffff3700e5
:020000040000fa
:1006d800f03fb1000180b10006003500ee030900cb
:1006e80000000000403fb1000180b100fbff3d0069
:1006f8001000b000203fb000020035000080090063
:080708000000000000000600e3
:020000040000fa
:0200000401f009
:04000000f3bf00004a
:020000040000fa
:0200000401f009
:04000400ff7f00007a
:020000040000fa
:0200000401f009
:040008007dff000078
:020000040000fa
:0200000401f009
:04001400ffff0000ea
:020000040000fa
:0200000401f009
:04001800ffff0000e6
:00000001FF
