:020000040000fa
:080000000001040000000000f3
:020000040000fa
:04000800540200009e
:020000040000fa
:04000c00540200009a
:020000040000fa
:040010005402000096
:020000040000fa
:040014005402000092
:020000040000fa
:04001800540200008e
:020000040000fa
:04001c00540200008a
:020000040000fa
:040020005402000086
:020000040000fa
:040024005402000082
:020000040000fa
:04002800540200007e
:020000040000fa
:04002c00540200007a
:020000040000fa
:040030005402000076
:020000040000fa
:04003400c8010000ff
:020000040000fa
:04003800540200006e
:020000040000fa
:04003c00540200006a
:020000040000fa
:04004000f2010000c9
:020000040000fa
:04004400280200008e
:020000040000fa
:04004800540200005e
:020000040000fa
:04004c00540200005a
:020000040000fa
:040050005402000056
:020000040000fa
:040054005402000052
:020000040000fa
:04005800540200004e
:020000040000fa
:04005c00540200004a
:020000040000fa
:040060005402000046
:020000040000fa
:040064005402000042
:020000040000fa
:04006800540200003e
:020000040000fa
:04006c00540200003a
:020000040000fa
:040070005402000036
:020000040000fa
:040074005402000032
:020000040000fa
:04007800540200002e
:020000040000fa
:04007c00540200002a
:020000040000fa
:040080005402000026
:020000040000fa
:040084005402000022
:020000040000fa
:04008800540200001e
:020000040000fa
:04008c00540200001a
:020000040000fa
:040090005402000016
:020000040000fa
:040094005402000012
:020000040000fa
:04009800540200000e
:020000040000fa
:04009c00540200000a
:020000040000fa
:0400a0005402000006
:020000040000fa
:0400a4005402000002
:020000040000fa
:0400a80054020000fe
:020000040000fa
:0400ac0054020000fa
:020000040000fa
:0400b00054020000f6
:020000040000fa
:0400b40054020000f2
:020000040000fa
:0400b80054020000ee
:020000040000fa
:0400bc0054020000ea
:020000040000fa
:0400c00054020000e6
:020000040000fa
:0400c40054020000e2
:020000040000fa
:0400c80054020000de
:020000040000fa
:0400cc0054020000da
:020000040000fa
:0400d00054020000d6
:020000040000fa
:0400d40054020000d2
:020000040000fa
:0400d80054020000ce
:020000040000fa
:04010800540200009d
:020000040000fa
:04010c005402000099
:020000040000fa
:040110005402000095
:020000040000fa
:040114005402000091
:020000040000fa
:04011800540200008d
:020000040000fa
:04011c005402000089
:020000040000fa
:040120005402000085
:020000040000fa
:040124005402000081
:020000040000fa
:04012800540200007d
:020000040000fa
:04012c005402000079
:020000040000fa
:040130005402000075
:020000040000fa
:04013400c8010000fe
:020000040000fa
:04013800540200006d
:020000040000fa
:04013c005402000069
:020000040000fa
:04014000f2010000c8
:020000040000fa
:04014400280200008d
:020000040000fa
:04014800540200005d
:020000040000fa
:04014c005402000059
:020000040000fa
:040150005402000055
:020000040000fa
:040154005402000051
:020000040000fa
:04015800540200004d
:020000040000fa
:04015c005402000049
:020000040000fa
:040160005402000045
:020000040000fa
:040164005402000041
:020000040000fa
:04016800540200003d
:020000040000fa
:04016c005402000039
:020000040000fa
:040170005402000035
:020000040000fa
:040174005402000031
:020000040000fa
:04017800540200002d
:020000040000fa
:04017c005402000029
:020000040000fa
:040180005402000025
:020000040000fa
:040184005402000021
:020000040000fa
:04018800540200001d
:020000040000fa
:04018c005402000019
:020000040000fa
:040190005402000015
:020000040000fa
:040194005402000011
:020000040000fa
:04019800540200000d
:020000040000fa
:04019c005402000009
:020000040000fa
:0401a0005402000005
:020000040000fa
:0401a4005402000001
:020000040000fa
:0401a80054020000fd
:020000040000fa
:0401ac0054020000f9
:020000040000fa
:0401b00054020000f5
:020000040000fa
:0401b40054020000f1
:020000040000fa
:0401b80054020000ed
:020000040000fa
:0401bc0054020000e9
:020000040000fa
:0401c00054020000e5
:020000040000fa
:0401c40054020000e1
:020000040000fa
:0401c80054020000dd
:020000040000fa
:0401cc0054020000d9
:020000040000fa
:0401d00054020000d5
:020000040000fa
:0401d40054020000d1
:020000040000fa
:0401d80054020000cd
:020000040000fa
:100200004f8020000eff20000e018800000000003b
:10021000000020000000e000020032000001200089
:100220002002880014000700a10007000000e00081
:1002300003003a00202f20000100200002003700b8
:100240000000200001002000810f7000010032003a
:1002500014000700000020000000e000020032004f
:1002600000000200000000005a020200000000002e
:100270000040da000000fe004440a9000000200019
:100280000000e0000300320000002000a001880010
:100290004440a800000006008a1f78008b1f7800e9
:1002a0000000060091018800800478000000eb0047
:1002b0001a003700e284440032a0b4009905ba0065
:1002c000e284440032a0b4009906ba00e2844400fb
:1002d00032a0b4000006eb00476fde00fd07b2005d
:1002e000636ce10003003a00ebff07000000eb0045
:1002f0000a003700606ce10004003a00005deb008a
:100300008b05e900fdff3e00040037006168e10055
:10031000010032000086eb000b00070019c7ba008d
:100320001905ba000e04e00003003a000a00e000dc
:10033000e0ff3a0000000600fe07b2009e018800c0
:100340008a047800f5ff3700395dba008b05e900b3
:100350000c003200295dba008b05e900080032006c
:100360000c00e00003003a00e284440032a0b40034
:10037000f5ff370019ddba008b05e900faff3a00f6
:100380008904e800e184440032a0b40000000600c3
:10039000809fbe003400f80000002000a00188000b
:1003a0000000fa008460a900501680000040780028
:1003b0006140600000c0ea00614060000080fb0016
:1003c00061006000511680000100a1000100700072
:1003d000501688000080fa003400f9004f00be007b
:1003e00000400600809fbe003400f800000020009e
:1003f000a00188000000fa0084c0a900104080001d
:10040000000c880010408000803eb0001040880042
:10041000501680000000d1006140600000c0ea007a
:10042000614060000080fb0061006000000040004f
:10043000511680000110a1000100700050168800c4
:100440000080fa003400f9004f00be0000400600b2
:10045000809fbe003400f80000002000a00188004a
:100460000000fa0084e0a900501680000000d100ce
:100470006140600000c0ea00614060000080fb0055
:100480006100600000004000511680000110a100d2
:1004900001007000501688000080fa003400f90056
:1004a0004f00be00004006000040da000000fe00e1
:0404b0000000050043
:020000040000fa
:1004b4000000fa00f0ff210040158800c622ef007a
:1004c400100020005016880001000700ffff3700cd
:1004d4000000fa00f0a52e0060088800100020003b
:1004e400000c880010002000100c88006000200020
:1004f400200c88001061a90081088000f0fc2f0006
:10050400008060000040a0008008880084c0a9002a
:10051400b1048000f08f2f000080600000a0a000d4
:10052400b00488008cc0a80011e1a8000080fa0083
:10053400000006000000fa00b02729001008880017
:100544000021ef000421a90021088000f0fc2f0005
:10055400008060000050a0002008880004c1a900a9
:100564008460a900a1048000f0ff2800808060005e
:100574000000250001007000a00488008c60a80021
:1005840005e1a8000080fa00000006000000fa005f
:10059400e016200070088800f05f230060088800df
:1005a4000a21ef000621ef001061a80081088000f5
:1005b400f0fc2f00008060008008880084e0a9001f
:1005c400b10480000000270001007000b00488001e
:1005d4008ce0a80011e1a8000080fa0000000600e9
:020000040000fa
:1005e40000080000040000000000000000000000fb
:020000040000fa
:0200000401f009
:04000000f3bf00004a
:020000040000fa
:0200000401f009
:04000400ff7f00007a
:020000040000fa
:0200000401f009
:040008007dff000078
:020000040000fa
:0200000401f009
:04001400ffff0000ea
:020000040000fa
:0200000401f009
:04001800ffff0000e6
:00000001FF
