:020000040000fa
:080000000001040000000000f3
:020000040000fa
:04000800c80100002b
:020000040000fa
:04000c00c801000027
:020000040000fa
:04001000c801000023
:020000040000fa
:04001400c80100001f
:020000040000fa
:04001800c80100001b
:020000040000fa
:04001c00c801000017
:020000040000fa
:04002000c801000013
:020000040000fa
:04002400c80100000f
:020000040000fa
:04002800c80100000b
:020000040000fa
:04002c00c801000007
:020000040000fa
:04003000c801000003
:020000040000fa
:04003400c8010000ff
:020000040000fa
:04003800c8010000fb
:020000040000fa
:04003c00c8010000f7
:020000040000fa
:04004000c8010000f3
:020000040000fa
:04004400c8010000ef
:020000040000fa
:04004800c8010000eb
:020000040000fa
:04004c00c8010000e7
:020000040000fa
:04005000c8010000e3
:020000040000fa
:04005400c8010000df
:020000040000fa
:04005800c8010000db
:020000040000fa
:04005c00c8010000d7
:020000040000fa
:04006000c8010000d3
:020000040000fa
:04006400c8010000cf
:020000040000fa
:04006800c8010000cb
:020000040000fa
:04006c00c8010000c7
:020000040000fa
:04007000c8010000c3
:020000040000fa
:04007400c8010000bf
:020000040000fa
:04007800c8010000bb
:020000040000fa
:04007c00c8010000b7
:020000040000fa
:04008000c8010000b3
:020000040000fa
:04008400c8010000af
:020000040000fa
:04008800c8010000ab
:020000040000fa
:04008c00c8010000a7
:020000040000fa
:04009000c8010000a3
:020000040000fa
:04009400c80100009f
:020000040000fa
:04009800c80100009b
:020000040000fa
:04009c00c801000097
:020000040000fa
:0400a000c801000093
:020000040000fa
:0400a400c80100008f
:020000040000fa
:0400a800c80100008b
:020000040000fa
:0400ac00c801000087
:020000040000fa
:0400b000c801000083
:020000040000fa
:0400b400c80100007f
:020000040000fa
:0400b800c80100007b
:020000040000fa
:0400bc00c801000077
:020000040000fa
:0400c000c801000073
:020000040000fa
:0400c400c80100006f
:020000040000fa
:0400c800c80100006b
:020000040000fa
:0400cc00c801000067
:020000040000fa
:0400d000c801000063
:020000040000fa
:0400d400c80100005f
:020000040000fa
:0400d800c80100005b
:020000040000fa
:04010800c80100002a
:020000040000fa
:04010c00c801000026
:020000040000fa
:04011000c801000022
:020000040000fa
:04011400c80100001e
:020000040000fa
:04011800c80100001a
:020000040000fa
:04011c00c801000016
:020000040000fa
:04012000c801000012
:020000040000fa
:04012400c80100000e
:020000040000fa
:04012800c80100000a
:020000040000fa
:04012c00c801000006
:020000040000fa
:04013000c801000002
:020000040000fa
:04013400c8010000fe
:020000040000fa
:04013800c8010000fa
:020000040000fa
:04013c00c8010000f6
:020000040000fa
:04014000c8010000f2
:020000040000fa
:04014400c8010000ee
:020000040000fa
:04014800c8010000ea
:020000040000fa
:04014c00c8010000e6
:020000040000fa
:04015000c8010000e2
:020000040000fa
:04015400c8010000de
:020000040000fa
:04015800c8010000da
:020000040000fa
:04015c00c8010000d6
:020000040000fa
:04016000c8010000d2
:020000040000fa
:04016400c8010000ce
:020000040000fa
:04016800c8010000ca
:020000040000fa
:04016c00c8010000c6
:020000040000fa
:04017000c8010000c2
:020000040000fa
:04017400c8010000be
:020000040000fa
:04017800c8010000ba
:020000040000fa
:04017c00c8010000b6
:020000040000fa
:04018000c8010000b2
:020000040000fa
:04018400c8010000ae
:020000040000fa
:04018800c8010000aa
:020000040000fa
:04018c00c8010000a6
:020000040000fa
:04019000c8010000a2
:020000040000fa
:04019400c80100009e
:020000040000fa
:04019800c80100009a
:020000040000fa
:04019c00c801000096
:020000040000fa
:0401a000c801000092
:020000040000fa
:0401a400c80100008e
:020000040000fa
:0401a800c80100008a
:020000040000fa
:0401ac00c801000086
:020000040000fa
:0401b000c801000082
:020000040000fa
:0401b400c80100007e
:020000040000fa
:0401b800c80100007a
:020000040000fa
:0401bc00c801000076
:020000040000fa
:0401c000c801000072
:020000040000fa
:0401c400c80100006e
:020000040000fa
:0401c800c80100006a
:020000040000fa
:0401cc00c801000066
:020000040000fa
:0401d000c801000062
:020000040000fa
:0401d400c80100005e
:020000040000fa
:0401d800c80100005a
:020000040000fa
:100200002f8020000eff20000e018800000000005b
:10021000000020000000e000020032000001200089
:1002200020028800140007005b0007000000e000c7
:1002300003003a00007c200001002000020037008b
:100240000000200001002000810f7000010032003a
:1002500014000700000020000000e000020032004f
:100260000000020000000000700702000000000013
:100270000040da000000fe004440a900205a20009f
:100280000000e0000300320000002000a001880010
:100290004440a800000006008a1f78008b1f7800e9
:1002a0000000060091018800800478000000eb0047
:1002b0001a003700e284440032a0b4009905ba0065
:1002c000e284440032a0b4009906ba00e2844400fb
:1002d00032a0b4000006eb00476fde00fd07b2005d
:1002e000636ce10003003a00ebff07000000eb0045
:1002f0000a003700606ce10004003a00005deb008a
:100300008b05e900fdff3e00040037006168e10055
:10031000010032000086eb000b00070019c7ba008d
:100320001905ba000e04e00003003a000a00e000dc
:10033000e0ff3a0000000600fe07b2009e018800c0
:100340008a047800f5ff3700395dba008b05e900b3
:100350000c003200295dba008b05e900080032006c
:100360000c00e00003003a00e284440032a0b40034
:10037000f5ff370019ddba008b05e900faff3a00f6
:100380008904e800e184440032a0b40000000600c3
:0c0390000040da000000fe000000050044
:020000040000fa
:10039c00fa0800002c0a0000410800007209000055
:1003ac00a40a0000b9080000ea0900001b0b0000b9
:1003bc002f090000600a0000900b0000a409000047
:1003cc00d40a0000030c0000160a0000440b0000c5
:1003dc00730c0000840a0000b20b0000de0c00005d
:1003ec00ef0a00001b0c0000460d0000550b00002e
:1003fc007f0c0000a80d0000b50b0000dd0c000008
:10040c00050e00000f0c0000350d00005b0e000007
:10041c00630c0000870d0000aa0e0000b00c000059
:10042c00d20d0000f20e0000f60c0000140e0000bd
:10043c00320f0000330d00004f0e00006a0f000059
:10044c00680d0000820e00009a0f0000950d000050
:10045c00ab0e0000c00f0000b90d0000cc0e000068
:10046c00de0f0000d30d0000e30e0000f20f0000c1
:10047c00e40d0000f10e0000fd0f0000ec0d00007b
:10048c00f60e0000ff0f0000eb0d0000f10e000057
:10049c00f70f0000e00d0000e30e0000e60f000077
:1004ac00cb0d0000cc0e0000cb0f0000ae0d0000f9
:1004bc00ab0e0000a80f0000870d0000820e00009c
:1004cc007b0f0000580d00004f0e0000460f00007f
:1004dc00200d0000140e0000080f0000df0c0000bf
:1004ec00d20d0000c30e0000970c0000870d000019
:1004fc00760e0000480c0000350d0000220e0000a6
:10050c00f20b0000dd0c0000c80d0000950b000084
:10051c007f0c0000670d0000330b00001b0c00006b
:10052c00010d0000cc0a0000b20b0000970c00007b
:10053c00600a0000440b0000290c0000f0090000c8
:10054c00d40a0000b70b00007d090000600a00000f
:10055c00420b000008090000ea090000cb0a000069
:10056c009108000072090000540a000019080000ec
:10057c00fa080000db090000a10700008208000057
:10058c0063090000290700000a080000ec080000bd
:10059c00b206000094070000770800003e06000039
:1005ac002107000004080000cc050000b006000084
:1005bc00940700005d0500004306000028070000ba
:1005cc00f3040000da050000c10600008d040000f1
:1005dc00760500005f0600002d04000017050000e2
:1005ec0002060000d2030000bf040000ac050000ae
:1005fc007e0300006d0400005d0500003103000067
:10060c002304000015050000ec020000e0030000cc
:10061c00d5040000ae020000a50300009d040000fc
:10062c0079020000730300006d0400004d0200000d
:10063c0049030000460400002902000028030000c2
:10064c00290400000e020000110300001504000034
:10065c00fd0100000303000009040000f501000087
:10066c00fe02000008040000f70100000303000074
:10067c00100400000202000011030000210400001d
:10068c0016020000280300003c04000034020000a5
:10069c00490300005f0400005a02000073030000cd
:1006ac008c0400008a020000a5030000c1040000b5
:1006bc00c2020000e0030000ff040000020300007f
:1006cc0023040000440500004a0300006d040000f0
:1006dc009105000099030000bf040000e50500002f
:1006ec00f0030000170500003f0600004c0400005a
:1006fc0076050000a0060000ae040000da0500003c
:10070c0005070000160500004306000070070000f6
:10071c0082050000b0060000de070000f1050000b5
:10072c002107000050080000640600009407000038
:10073c00c5080000da0600000a0800003b090000aa
:10074c005107000082080000b3090000c90700002f
:10075c00fa0800002c0a0000410800007209000091
:10076c00a40a0000b9080000ea0900001b0b0000f5
:10077c002f090000600a0000900b0000a409000083
:10078c00d40a0000030c0000160a0000440b000001
:10079c00730c0000840a0000b20b0000de0c000099
:1007ac00ef0a00001b0c0000460d0000550b00006a
:1007bc007f0c0000a80d0000b50b0000dd0c000044
:1007cc00050e00000f0c0000350d00005b0e000044
:1007dc00630c0000870d0000aa0e0000b00c000096
:1007ec00d20d0000f20e0000f60c0000140e0000fa
:1007fc00320f0000330d00004f0e00006a0f000096
:10080c00680d0000820e00009a0f0000950d00008c
:10081c00ab0e0000c00f0000b90d0000cc0e0000a4
:10082c00de0f0000d30d0000e30e0000f20f0000fd
:10083c00e40d0000f10e0000fd0f0000ec0d0000b7
:10084c00f60e0000ff0f0000eb0d0000f10e000093
:10085c00f70f0000e00d0000e30e0000e60f0000b3
:10086c00cb0d0000cc0e0000cb0f0000ae0d000035
:10087c00ab0e0000a80f0000870d0000820e0000d8
:10088c007b0f0000580d00004f0e0000460f0000bb
:10089c00200d0000140e0000080f0000df0c0000fb
:1008ac00d20d0000c30e0000970c0000870d000055
:1008bc00760e0000480c0000350d0000220e0000e2
:1008cc00f20b0000dd0c0000c80d0000950b0000c1
:1008dc007f0c0000670d0000330b00001b0c0000a8
:1008ec00010d0000cc0a0000b20b0000970c0000b8
:1008fc00600a0000440b0000290c0000f009000005
:10090c00d40a0000b70b00007d090000600a00004b
:10091c00420b000008090000ea090000cb0a0000a5
:10092c009108000072090000540a00001908000028
:10093c00fa080000db090000a10700008208000093
:10094c0063090000290700000a080000ec080000f9
:10095c00b206000094070000770800003e06000075
:10096c002107000004080000cc050000b0060000c0
:10097c00940700005d0500004306000028070000f6
:10098c00f3040000da050000c10600008d0400002d
:10099c00760500005f0600002d040000170500001e
:1009ac0002060000d2030000bf040000ac050000ea
:1009bc007e0300006d0400005d05000031030000a3
:1009cc002304000015050000ec020000e003000009
:1009dc00d5040000ae020000a50300009d04000039
:1009ec0079020000730300006d0400004d0200004a
:1009fc0049030000460400002902000028030000ff
:100a0c00290400000e020000110300001504000070
:100a1c00fd0100000303000009040000f5010000c3
:100a2c00fe02000008040000f701000003030000b0
:100a3c001004000002020000110300002104000059
:100a4c0016020000280300003c04000034020000e1
:100a5c00490300005f0400005a0200007303000009
:100a6c008c0400008a020000a5030000c1040000f1
:100a7c00c2020000e0030000ff04000002030000bb
:100a8c0023040000440500004a0300006d0400002c
:100a9c009105000099030000bf040000e50500006b
:100aac00f0030000170500003f0600004c04000096
:100abc0076050000a0060000ae040000da05000078
:100acc000507000016050000430600007007000033
:100adc0082050000b0060000de070000f1050000f2
:100aec002107000050080000640600009407000075
:100afc00c5080000da0600000a0800003b090000e7
:100b0c005107000082080000b3090000c90700006b
:100b1c00fa0800002c0a00004108000072090000cd
:100b2c00a40a0000b9080000ea0900001b0b000031
:100b3c002f090000600a0000900b0000a4090000bf
:100b4c00d40a0000030c0000160a0000440b00003d
:100b5c00730c0000840a0000b20b0000de0c0000d5
:100b6c00ef0a00001b0c0000460d0000550b0000a6
:100b7c007f0c0000a80d0000b50b0000dd0c000080
:100b8c00050e00000f0c0000350d00005b0e000080
:100b9c00630c0000870d0000aa0e0000b00c0000d2
:100bac00d20d0000f20e0000f60c0000140e000036
:100bbc00320f0000330d00004f0e00006a0f0000d2
:100bcc00680d0000820e00009a0f0000950d0000c9
:100bdc00ab0e0000c00f0000b90d0000cc0e0000e1
:100bec00de0f0000d30d0000e30e0000f20f00003a
:100bfc00e40d0000f10e0000fd0f0000ec0d0000f4
:100c0c00f60e0000ff0f0000eb0d0000f10e0000cf
:100c1c00f70f0000e00d0000e30e0000e60f0000ef
:100c2c00cb0d0000cc0e0000cb0f0000ae0d000071
:100c3c00ab0e0000a80f0000870d0000820e000014
:100c4c007b0f0000580d00004f0e0000460f0000f7
:100c5c00200d0000140e0000080f0000df0c000037
:100c6c00d20d0000c30e0000970c0000870d000091
:100c7c00760e0000480c0000350d0000220e00001e
:100c8c00f20b0000dd0c0000c80d0000950b0000fd
:100c9c007f0c0000670d0000330b00001b0c0000e4
:100cac00010d0000cc0a0000b20b0000970c0000f4
:100cbc00600a0000440b0000290c0000f009000041
:100ccc00d40a0000b70b00007d090000600a000088
:100cdc00420b000008090000ea090000cb0a0000e2
:100cec009108000072090000540a00001908000065
:100cfc00fa080000db090000a107000082080000d0
:100d0c0063090000290700000a080000ec08000035
:100d1c00b206000094070000770800003e060000b1
:100d2c002107000004080000cc050000b0060000fc
:100d3c00940700005d050000430600002807000032
:100d4c00f3040000da050000c10600008d04000069
:100d5c00760500005f0600002d040000170500005a
:100d6c0002060000d2030000bf040000ac05000026
:100d7c007e0300006d0400005d05000031030000df
:100d8c002304000015050000ec020000e003000045
:100d9c00d5040000ae020000a50300009d04000075
:100dac0079020000730300006d0400004d02000086
:100dbc00490300004604000029020000280300003b
:100dcc00290400000e0200001103000015040000ad
:100ddc00fd0100000303000009040000f501000000
:100dec00fe02000008040000f701000003030000ed
:100dfc001004000002020000110300002104000096
:100e0c0016020000280300003c040000340200001d
:100e1c00490300005f0400005a0200007303000045
:100e2c008c0400008a020000a5030000c10400002d
:100e3c00c2020000e0030000ff04000002030000f7
:100e4c0023040000440500004a0300006d04000068
:100e5c009105000099030000bf040000e5050000a7
:100e6c00f0030000170500003f0600004c040000d2
:100e7c0076050000a0060000ae040000da050000b4
:100e8c00050700001605000043060000700700006f
:100e9c0082050000b0060000de070000f10500002e
:100eac0021070000500800006406000094070000b1
:100ebc00c5080000da0600000a0800003b09000023
:100ecc005107000082080000b3090000c9070000a8
:040edc00fa08000010
:020000040000fa
:100ee0000000fa00f0ff210040158800c622ef0044
:100ef000ca22ef00de22ef000028ef000d003700cd
:100f00000040800080004000e01c2800008040007d
:100f1000100078004580de001017880000dc2500f6
:100f20000100200008000700004080000000e800e9
:100f30000040880001408000002d2000808f50007c
:080f4000efff3400ecff370065
:020000040000fa
:100f4800f03fb1000180b10006003500ee03090052
:100f580000000000403fb1000180b100fbff3d00f0
:100f68001000b000203fb0000200350000800900ea
:080f780000000000000006006b
:020000040000fa
:100f80000008000002000000000000000000000057
:020000040000fa
:0200000401f009
:04000000f3bf00004a
:020000040000fa
:0200000401f009
:04000400ff7f00007a
:020000040000fa
:0200000401f009
:040008007dff000078
:020000040000fa
:0200000401f009
:04001400ffff0000ea
:020000040000fa
:0200000401f009
:04001800ffff0000e6
:00000001FF
