:020000040000fa
:080000000001040000000000f3
:020000040000fa
:040008001e020000d4
:020000040000fa
:04000c001e020000d0
:020000040000fa
:040010001e020000cc
:020000040000fa
:040014001e020000c8
:020000040000fa
:040018001e020000c4
:020000040000fa
:04001c001e020000c0
:020000040000fa
:040020001e020000bc
:020000040000fa
:040024001e020000b8
:020000040000fa
:04002800c80100000b
:020000040000fa
:04002c001e020000b0
:020000040000fa
:040030001e020000ac
:020000040000fa
:040034001e020000a8
:020000040000fa
:040038001e020000a4
:020000040000fa
:04003c001e020000a0
:020000040000fa
:040040001e0200009c
:020000040000fa
:040044001e02000098
:020000040000fa
:040048001e02000094
:020000040000fa
:04004c001e02000090
:020000040000fa
:040050001e0200008c
:020000040000fa
:040054001e02000088
:020000040000fa
:040058001e02000084
:020000040000fa
:04005c001e02000080
:020000040000fa
:040060001e0200007c
:020000040000fa
:040064001e02000078
:020000040000fa
:04006800f40100009f
:020000040000fa
:04006c001e02000070
:020000040000fa
:040070001e0200006c
:020000040000fa
:040074001e02000068
:020000040000fa
:040078001e02000064
:020000040000fa
:04007c001e02000060
:020000040000fa
:040080001e0200005c
:020000040000fa
:040084001e02000058
:020000040000fa
:040088001e02000054
:020000040000fa
:04008c001e02000050
:020000040000fa
:040090001e0200004c
:020000040000fa
:040094001e02000048
:020000040000fa
:040098001e02000044
:020000040000fa
:04009c001e02000040
:020000040000fa
:0400a0001e0200003c
:020000040000fa
:0400a4001e02000038
:020000040000fa
:0400a8001e02000034
:020000040000fa
:0400ac001e02000030
:020000040000fa
:0400b0001e0200002c
:020000040000fa
:0400b4001e02000028
:020000040000fa
:0400b8001e02000024
:020000040000fa
:0400bc001e02000020
:020000040000fa
:0400c0001e0200001c
:020000040000fa
:0400c4001e02000018
:020000040000fa
:0400c8001e02000014
:020000040000fa
:0400cc001e02000010
:020000040000fa
:0400d0001e0200000c
:020000040000fa
:0400d4001e02000008
:020000040000fa
:0400d8001e02000004
:020000040000fa
:040108001e020000d3
:020000040000fa
:04010c001e020000cf
:020000040000fa
:040110001e020000cb
:020000040000fa
:040114001e020000c7
:020000040000fa
:040118001e020000c3
:020000040000fa
:04011c001e020000bf
:020000040000fa
:040120001e020000bb
:020000040000fa
:040124001e020000b7
:020000040000fa
:04012800c80100000a
:020000040000fa
:04012c001e020000af
:020000040000fa
:040130001e020000ab
:020000040000fa
:040134001e020000a7
:020000040000fa
:040138001e020000a3
:020000040000fa
:04013c001e0200009f
:020000040000fa
:040140001e0200009b
:020000040000fa
:040144001e02000097
:020000040000fa
:040148001e02000093
:020000040000fa
:04014c001e0200008f
:020000040000fa
:040150001e0200008b
:020000040000fa
:040154001e02000087
:020000040000fa
:040158001e02000083
:020000040000fa
:04015c001e0200007f
:020000040000fa
:040160001e0200007b
:020000040000fa
:040164001e02000077
:020000040000fa
:04016800f40100009e
:020000040000fa
:04016c001e0200006f
:020000040000fa
:040170001e0200006b
:020000040000fa
:040174001e02000067
:020000040000fa
:040178001e02000063
:020000040000fa
:04017c001e0200005f
:020000040000fa
:040180001e0200005b
:020000040000fa
:040184001e02000057
:020000040000fa
:040188001e02000053
:020000040000fa
:04018c001e0200004f
:020000040000fa
:040190001e0200004b
:020000040000fa
:040194001e02000047
:020000040000fa
:040198001e02000043
:020000040000fa
:04019c001e0200003f
:020000040000fa
:0401a0001e0200003b
:020000040000fa
:0401a4001e02000037
:020000040000fa
:0401a8001e02000033
:020000040000fa
:0401ac001e0200002f
:020000040000fa
:0401b0001e0200002b
:020000040000fa
:0401b4001e02000027
:020000040000fa
:0401b8001e02000023
:020000040000fa
:0401bc001e0200001f
:020000040000fa
:0401c0001e0200001b
:020000040000fa
:0401c4001e02000017
:020000040000fa
:0401c8001e02000013
:020000040000fa
:0401cc001e0200000f
:020000040000fa
:0401d0001e0200000b
:020000040000fa
:0401d4001e02000007
:020000040000fa
:0401d8001e02000003
:020000040000fa
:100200000f8020000eff20000e018800000000007b
:10021000000020000000e000020032000001200089
:100220002002880014000700860007000000e0009c
:1002300003003a0000002000010020000200370007
:100240000000200001002000810f7000010032003a
:1002500014000700000020000000e000020032004f
:100260000000020000000000500202000000000038
:100270000040da000000fe004440a9000000200019
:100280000000e0000300320000002000a001880010
:100290004440a800000006008a1f78008b1f7800e9
:1002a0000000060091018800800478000000eb0047
:1002b0001a003700e284440032a0b4009905ba0065
:1002c000e284440032a0b4009906ba00e2844400fb
:1002d00032a0b4000006eb00476fde00fd07b2005d
:1002e000636ce10003003a00ebff07000000eb0045
:1002f0000a003700606ce10004003a00005deb008a
:100300008b05e900fdff3e00040037006168e10055
:10031000010032000086eb000b00070019c7ba008d
:100320001905ba000e04e00003003a000a00e000dc
:10033000e0ff3a0000000600fe07b2009e018800c0
:100340008a047800f5ff3700395dba008b05e900b3
:100350000c003200295dba008b05e900080032006c
:100360000c00e00003003a00e284440032a0b40034
:10037000f5ff370019ddba008b05e900faff3a00f6
:100380008904e800e184440032a0b40000000600c3
:10039000809fbe003400f80000002000a00188000b
:1003a0000000fa00501680000000d100614060009b
:1003b00000c0ea00614060000080fb006100600056
:1003c00000004000511680000110a10001007000e3
:1003d000501688008400a9000080fa003400f9005b
:1003e0004f00be0000400600809fbe003400f800b1
:1003f00000002000a00188000000fa00b016800074
:10040000004078006140600000c0ea006140600088
:100410000080fb0061006000b11680000100a100b7
:1004200001007000b01688008600a9000080fa0064
:100430003400f9004f00be00004006000040da0022
:080440000000fe0000000500b1
:020000040000fa
:100448000000fa008220a8008600a9008e00a800fb
:10045800e104800080ff2f00008060005000b3009e
:10046800e00488000080fa00000006000000fa009e
:100478008200a9008400a9008c00a800a1048000c3
:1004880080ff2f00008060003000b300a0048800c7
:100498000080fa00000006000000fa00f0ff2100ca
:1004a80040158800c622ef00ca22ef00c162a800ea
:1004b800d302a800d202a900ecff0700e0ff070062
:1004c800ca02a80000e023009104200005000700ec
:1004d800ca02a90000e023009104200001000700df
:0404e800f7ff3700e3
:020000040000fa
:1004ec00f03fb1000180b10006003500ee030900b9
:1004fc0000000000403fb1000180b100fbff3d0057
:10050c001000b000203fb000020035000080090050
:08051c000000000000000600d1
:020000040000fa
:0200000401f009
:04000000f3bf00004a
:020000040000fa
:0200000401f009
:04000400ff7f00007a
:020000040000fa
:0200000401f009
:040008007dff000078
:020000040000fa
:0200000401f009
:04001400ffff0000ea
:020000040000fa
:0200000401f009
:04001800ffff0000e6
:00000001FF
