:020000040000fa
:080000000001040000000000f3
:020000040000fa
:04000800c80100002b
:020000040000fa
:04000c00c801000027
:020000040000fa
:04001000c801000023
:020000040000fa
:04001400c80100001f
:020000040000fa
:04001800c80100001b
:020000040000fa
:04001c00c801000017
:020000040000fa
:04002000c801000013
:020000040000fa
:04002400c80100000f
:020000040000fa
:04002800c80100000b
:020000040000fa
:04002c00c801000007
:020000040000fa
:04003000c801000003
:020000040000fa
:04003400c8010000ff
:020000040000fa
:04003800c8010000fb
:020000040000fa
:04003c00c8010000f7
:020000040000fa
:04004000c8010000f3
:020000040000fa
:04004400c8010000ef
:020000040000fa
:04004800c8010000eb
:020000040000fa
:04004c00c8010000e7
:020000040000fa
:04005000c8010000e3
:020000040000fa
:04005400c8010000df
:020000040000fa
:04005800c8010000db
:020000040000fa
:04005c00c8010000d7
:020000040000fa
:04006000c8010000d3
:020000040000fa
:04006400c8010000cf
:020000040000fa
:04006800c8010000cb
:020000040000fa
:04006c00c8010000c7
:020000040000fa
:04007000c8010000c3
:020000040000fa
:04007400c8010000bf
:020000040000fa
:04007800c8010000bb
:020000040000fa
:04007c00c8010000b7
:020000040000fa
:04008000c8010000b3
:020000040000fa
:04008400c8010000af
:020000040000fa
:04008800c8010000ab
:020000040000fa
:04008c00c8010000a7
:020000040000fa
:04009000c8010000a3
:020000040000fa
:04009400c80100009f
:020000040000fa
:04009800c80100009b
:020000040000fa
:04009c00c801000097
:020000040000fa
:0400a000c801000093
:020000040000fa
:0400a400c80100008f
:020000040000fa
:0400a800c80100008b
:020000040000fa
:0400ac00c801000087
:020000040000fa
:0400b000c801000083
:020000040000fa
:0400b400c80100007f
:020000040000fa
:0400b800c80100007b
:020000040000fa
:0400bc00c801000077
:020000040000fa
:0400c000c801000073
:020000040000fa
:0400c400c80100006f
:020000040000fa
:0400c800c80100006b
:020000040000fa
:0400cc00c801000067
:020000040000fa
:0400d000c801000063
:020000040000fa
:0400d400c80100005f
:020000040000fa
:0400d800c80100005b
:020000040000fa
:04010800c80100002a
:020000040000fa
:04010c00c801000026
:020000040000fa
:04011000c801000022
:020000040000fa
:04011400c80100001e
:020000040000fa
:04011800c80100001a
:020000040000fa
:04011c00c801000016
:020000040000fa
:04012000c801000012
:020000040000fa
:04012400c80100000e
:020000040000fa
:04012800c80100000a
:020000040000fa
:04012c00c801000006
:020000040000fa
:04013000c801000002
:020000040000fa
:04013400c8010000fe
:020000040000fa
:04013800c8010000fa
:020000040000fa
:04013c00c8010000f6
:020000040000fa
:04014000c8010000f2
:020000040000fa
:04014400c8010000ee
:020000040000fa
:04014800c8010000ea
:020000040000fa
:04014c00c8010000e6
:020000040000fa
:04015000c8010000e2
:020000040000fa
:04015400c8010000de
:020000040000fa
:04015800c8010000da
:020000040000fa
:04015c00c8010000d6
:020000040000fa
:04016000c8010000d2
:020000040000fa
:04016400c8010000ce
:020000040000fa
:04016800c8010000ca
:020000040000fa
:04016c00c8010000c6
:020000040000fa
:04017000c8010000c2
:020000040000fa
:04017400c8010000be
:020000040000fa
:04017800c8010000ba
:020000040000fa
:04017c00c8010000b6
:020000040000fa
:04018000c8010000b2
:020000040000fa
:04018400c8010000ae
:020000040000fa
:04018800c8010000aa
:020000040000fa
:04018c00c8010000a6
:020000040000fa
:04019000c8010000a2
:020000040000fa
:04019400c80100009e
:020000040000fa
:04019800c80100009a
:020000040000fa
:04019c00c801000096
:020000040000fa
:0401a000c801000092
:020000040000fa
:0401a400c80100008e
:020000040000fa
:0401a800c80100008a
:020000040000fa
:0401ac00c801000086
:020000040000fa
:0401b000c801000082
:020000040000fa
:0401b400c80100007e
:020000040000fa
:0401b800c80100007a
:020000040000fa
:0401bc00c801000076
:020000040000fa
:0401c000c801000072
:020000040000fa
:0401c400c80100006e
:020000040000fa
:0401c800c80100006a
:020000040000fa
:0401cc00c801000066
:020000040000fa
:0401d000c801000062
:020000040000fa
:0401d400c80100005e
:020000040000fa
:0401d800c80100005a
:020000040000fa
:100200008f8120000eff20000e01880000000000fa
:10021000000020000000e000020032000001200089
:1002200020028800140007005b0007000000e000c7
:1002300003003a0040b52000010020000200370012
:100240000000200001002000810f7000010032003a
:1002500014000700000020000000e000020032004f
:100260000000020000000000de09020000000000a3
:100270000040da000000fe004440a900205a20009f
:100280000000e0000300320000002000a001880010
:100290004440a800000006008a1f78008b1f7800e9
:1002a0000000060091018800800478000000eb0047
:1002b0001a003700e284440032a0b4009905ba0065
:1002c000e284440032a0b4009906ba00e2844400fb
:1002d00032a0b4000006eb00476fde00fd07b2005d
:1002e000636ce10003003a00ebff07000000eb0045
:1002f0000a003700606ce10004003a00005deb008a
:100300008b05e900fdff3e00040037006168e10055
:10031000010032000086eb000b00070019c7ba008d
:100320001905ba000e04e00003003a000a00e000dc
:10033000e0ff3a0000000600fe07b2009e018800c0
:100340008a047800f5ff3700395dba008b05e900b3
:100350000c003200295dba008b05e900080032006c
:100360000c00e00003003a00e284440032a0b40034
:10037000f5ff370019ddba008b05e900faff3a00f6
:100380008904e800e184440032a0b40000000600c3
:100390000040da000000fe000000050003f0a200ab
:1003a000889fbe008a9fbe008c1f7800b7000700a0
:1003b000be0033006450e1004f0032006420e100d1
:1003c0005200320003826c0007003b000905d00098
:1003d0000306d000820f54000c065d0002003900b5
:1003e00002003200890178000306780085825500fa
:1003f00004003d000003fd008103fd008502ea00ca
:100400008b854200840f720002003b0060001000e8
:10041000e08018006011b8000005eb007a28e100c8
:100420000a00390006007800c75ddd00f707b2005a
:10043000878075002d003700828171000a017800e5
:10044000610560008180d1000080d3008502e90051
:10045000f9ff3b00060440008784480002003b008f
:1004600060041400e0841c000988a3000700320027
:100470008a81710082817100610164008904d10068
:100480000884d3008b05e800170037000978a30023
:1004900013003a000b00e000130034008b05e90064
:1004a0000804440089844c000a4474000978a300bd
:1004b0000d003a000b00e000070034008b05e90056
:1004c0000804440089844c0001003a000b0020001d
:1004d0000978a300f7ff32000001eb0002003700ab
:1004e000828171000a0178002d0007000cf0a7003e
:1004f00001f0a000760037006420e10002003a001d
:10050000838f6c00760033000801be000200be003d
:100510006f0037000001be00470007000470a7000d
:1005200003f0a1006509b100160032000d0035008e
:100530006828e10006003500f0ff2f00f1ff2700da
:100540000300e00013003b0001002800000005004c
:1005500000004000818048008502e900fcff3a006d
:1005600008003700f88f420002003c008000eb00da
:10057000000005008100d1000080d3008502e80062
:10058000fcff3a000300e00002003b0060001000a6
:10059000e0801800000006006011b80087003700f6
:1005a00081002000618055000b003d000b00200001
:1005b00061fe2f000100e1001d0034008281710006
:1005c000610164008904d1000884d3000000e800c0
:1005d000faff3a007100200061006400030070001f
:1005e000020060000900320061044400e0844c0015
:1005f0000988a500050032008b05e8006808e100c5
:1006000002003a008904d1000884d300f20f2000d0
:100610000258e10005003d00c75ddd00f907b200aa
:100620008980750008007800000006000bf827009c
:100630008b00780000000500c70ade00f107b20059
:10064000f50fb20008003200e1cf42000200320094
:100650000170a00024000500810f7000010032002d
:100660000408050044000500810f700002003a00f4
:10067000140005008502e9000000400081c0480028
:10068000fcff3b000170a000240005000004be0038
:10069000e9ff07000003be000405be000200be0023
:1006a000e5ff0700844f7500000006000200be0051
:1006b0006450e100050036006420e10002003600cd
:1006c0000968a30001003a000800be000160a00014
:1006d0004f0678004f05be004f04be000000060024
:1006e000f0ff2f00f1ff2700f9ff3700889fbe00c1
:1006f0008a9fbe008c1f7800e4ff0700ebff3300e9
:1007000003866c006450e100240032006420e100a4
:10071000270032006150e100220032006120e10038
:10072000210032008b854200eb07b1000134b80094
:10073000003ab8000804420089844a00013ab8002f
:100740000030b8008880400009014a0004003300ee
:100750000000400081804800020149008b05e9004b
:10076000c909dd0083017000010032001300200080
:10077000c814de004814dd004709de001200b20094
:10078000c808de000884700085ff070001f0a100a2
:100790000cf0a70001f0a000cdff37006120e100c0
:1007a000cfff32000801be000200be00f7ff370095
:1007b0006150e100fcff3a00c9ff3700889fbe008e
:1007c0008a9fbe00008270000402710004827100e2
:1007d000260032000004be000200be006011b80016
:1007e0006b092000950220000182cf000a00390029
:1007f0000541b1000082cf00070039000541b1007a
:100800000982cf00040039000541b1000882cf0001
:10081000010039000541b1000542520012003200ca
:100820000a003b0082817100610164008100d100f7
:100830000080d3008984d3000884d3008b05e800ae
:100840000442e800f7ff3a000700370008044400bc
:1008500089844c0000004800818048008b05e90035
:100860000442e900f9ff3a004dff07004f05be00c2
:080870004f04be000000060069
:020000040000fa
:10087800fa0800002c0a0000410800007209000074
:10088800a40a0000b9080000ea0900001b0b0000d8
:100898002f090000600a0000900b0000a409000066
:1008a800d40a0000030c0000160a0000440b0000e4
:1008b800730c0000840a0000b20b0000de0c00007c
:1008c800ef0a00001b0c0000460d0000550b00004d
:1008d8007f0c0000a80d0000b50b0000dd0c000027
:1008e800050e00000f0c0000350d00005b0e000027
:1008f800630c0000870d0000aa0e0000b00c000079
:10090800d20d0000f20e0000f60c0000140e0000dc
:10091800320f0000330d00004f0e00006a0f000078
:10092800680d0000820e00009a0f0000950d00006f
:10093800ab0e0000c00f0000b90d0000cc0e000087
:10094800de0f0000d30d0000e30e0000f20f0000e0
:10095800e40d0000f10e0000fd0f0000ec0d00009a
:10096800f60e0000ff0f0000eb0d0000f10e000076
:10097800f70f0000e00d0000e30e0000e60f000096
:10098800cb0d0000cc0e0000cb0f0000ae0d000018
:10099800ab0e0000a80f0000870d0000820e0000bb
:1009a8007b0f0000580d00004f0e0000460f00009e
:1009b800200d0000140e0000080f0000df0c0000de
:1009c800d20d0000c30e0000970c0000870d000038
:1009d800760e0000480c0000350d0000220e0000c5
:1009e800f20b0000dd0c0000c80d0000950b0000a4
:1009f8007f0c0000670d0000330b00001b0c00008b
:100a0800010d0000cc0a0000b20b0000970c00009a
:100a1800600a0000440b0000290c0000f0090000e7
:100a2800d40a0000b70b00007d090000600a00002e
:100a3800420b000008090000ea090000cb0a000088
:100a48009108000072090000540a0000190800000b
:100a5800fa080000db090000a10700008208000076
:100a680063090000290700000a080000ec080000dc
:100a7800b206000094070000770800003e06000058
:100a88002107000004080000cc050000b0060000a3
:100a9800940700005d0500004306000028070000d9
:100aa800f3040000da050000c10600008d04000010
:100ab800760500005f0600002d0400001705000001
:100ac80002060000d2030000bf040000ac050000cd
:100ad8007e0300006d0400005d0500003103000086
:100ae8002304000015050000ec020000e0030000ec
:100af800d5040000ae020000a50300009d0400001c
:100b080079020000730300006d0400004d0200002c
:100b180049030000460400002902000028030000e1
:100b2800290400000e020000110300001504000053
:100b3800fd0100000303000009040000f5010000a6
:100b4800fe02000008040000f70100000303000093
:100b5800100400000202000011030000210400003c
:100b680016020000280300003c04000034020000c4
:100b7800490300005f0400005a02000073030000ec
:100b88008c0400008a020000a5030000c1040000d4
:100b9800c2020000e0030000ff040000020300009e
:100ba80023040000440500004a0300006d0400000f
:100bb8009105000099030000bf040000e50500004e
:100bc800f0030000170500003f0600004c04000079
:100bd80076050000a0060000ae040000da0500005b
:100be8000507000016050000430600007007000016
:100bf80082050000b0060000de070000f1050000d5
:100c08002107000050080000640600009407000057
:100c1800c5080000da0600000a0800003b090000c9
:100c28005107000082080000b3090000c90700004e
:100c3800fa0800002c0a00004108000072090000b0
:100c4800a40a0000b9080000ea0900001b0b000014
:100c58002f090000600a0000900b0000a4090000a2
:100c6800d40a0000030c0000160a0000440b000020
:100c7800730c0000840a0000b20b0000de0c0000b8
:100c8800ef0a00001b0c0000460d0000550b000089
:100c98007f0c0000a80d0000b50b0000dd0c000063
:100ca800050e00000f0c0000350d00005b0e000063
:100cb800630c0000870d0000aa0e0000b00c0000b5
:100cc800d20d0000f20e0000f60c0000140e000019
:100cd800320f0000330d00004f0e00006a0f0000b5
:100ce800680d0000820e00009a0f0000950d0000ac
:100cf800ab0e0000c00f0000b90d0000cc0e0000c4
:100d0800de0f0000d30d0000e30e0000f20f00001c
:100d1800e40d0000f10e0000fd0f0000ec0d0000d6
:100d2800f60e0000ff0f0000eb0d0000f10e0000b2
:100d3800f70f0000e00d0000e30e0000e60f0000d2
:100d4800cb0d0000cc0e0000cb0f0000ae0d000054
:100d5800ab0e0000a80f0000870d0000820e0000f7
:100d68007b0f0000580d00004f0e0000460f0000da
:100d7800200d0000140e0000080f0000df0c00001a
:100d8800d20d0000c30e0000970c0000870d000074
:100d9800760e0000480c0000350d0000220e000001
:100da800f20b0000dd0c0000c80d0000950b0000e0
:100db8007f0c0000670d0000330b00001b0c0000c7
:100dc800010d0000cc0a0000b20b0000970c0000d7
:100dd800600a0000440b0000290c0000f009000024
:100de800d40a0000b70b00007d090000600a00006b
:100df800420b000008090000ea090000cb0a0000c5
:100e08009108000072090000540a00001908000047
:100e1800fa080000db090000a107000082080000b2
:100e280063090000290700000a080000ec08000018
:100e3800b206000094070000770800003e06000094
:100e48002107000004080000cc050000b0060000df
:100e5800940700005d050000430600002807000015
:100e6800f3040000da050000c10600008d0400004c
:100e7800760500005f0600002d040000170500003d
:100e880002060000d2030000bf040000ac05000009
:100e98007e0300006d0400005d05000031030000c2
:100ea8002304000015050000ec020000e003000028
:100eb800d5040000ae020000a50300009d04000058
:100ec80079020000730300006d0400004d02000069
:100ed800490300004604000029020000280300001e
:100ee800290400000e020000110300001504000090
:100ef800fd0100000303000009040000f5010000e3
:100f0800fe02000008040000f701000003030000cf
:100f18001004000002020000110300002104000078
:100f280016020000280300003c0400003402000000
:100f3800490300005f0400005a0200007303000028
:100f48008c0400008a020000a5030000c104000010
:100f5800c2020000e0030000ff04000002030000da
:100f680023040000440500004a0300006d0400004b
:100f78009105000099030000bf040000e50500008a
:100f8800f0030000170500003f0600004c040000b5
:100f980076050000a0060000ae040000da05000097
:100fa8000507000016050000430600007007000052
:100fb80082050000b0060000de070000f105000011
:100fc8002107000050080000640600009407000094
:100fd800c5080000da0600000a0800003b09000006
:100fe8005107000082080000b3090000c90700008b
:100ff800fa0800002c0a00004108000072090000ed
:10100800a40a0000b9080000ea0900001b0b000050
:101018002f090000600a0000900b0000a4090000de
:10102800d40a0000030c0000160a0000440b00005c
:10103800730c0000840a0000b20b0000de0c0000f4
:10104800ef0a00001b0c0000460d0000550b0000c5
:101058007f0c0000a80d0000b50b0000dd0c00009f
:10106800050e00000f0c0000350d00005b0e00009f
:10107800630c0000870d0000aa0e0000b00c0000f1
:10108800d20d0000f20e0000f60c0000140e000055
:10109800320f0000330d00004f0e00006a0f0000f1
:1010a800680d0000820e00009a0f0000950d0000e8
:1010b800ab0e0000c00f0000b90d0000cc0e000000
:1010c800de0f0000d30d0000e30e0000f20f000059
:1010d800e40d0000f10e0000fd0f0000ec0d000013
:1010e800f60e0000ff0f0000eb0d0000f10e0000ef
:1010f800f70f0000e00d0000e30e0000e60f00000f
:10110800cb0d0000cc0e0000cb0f0000ae0d000090
:10111800ab0e0000a80f0000870d0000820e000033
:101128007b0f0000580d00004f0e0000460f000016
:10113800200d0000140e0000080f0000df0c000056
:10114800d20d0000c30e0000970c0000870d0000b0
:10115800760e0000480c0000350d0000220e00003d
:10116800f20b0000dd0c0000c80d0000950b00001c
:101178007f0c0000670d0000330b00001b0c000003
:10118800010d0000cc0a0000b20b0000970c000013
:10119800600a0000440b0000290c0000f009000060
:1011a800d40a0000b70b00007d090000600a0000a7
:1011b800420b000008090000ea090000cb0a000001
:1011c8009108000072090000540a00001908000084
:1011d800fa080000db090000a107000082080000ef
:1011e80063090000290700000a080000ec08000055
:1011f800b206000094070000770800003e060000d1
:101208002107000004080000cc050000b00600001b
:10121800940700005d050000430600002807000051
:10122800f3040000da050000c10600008d04000088
:10123800760500005f0600002d0400001705000079
:1012480002060000d2030000bf040000ac05000045
:101258007e0300006d0400005d05000031030000fe
:101268002304000015050000ec020000e003000064
:10127800d5040000ae020000a50300009d04000094
:1012880079020000730300006d0400004d020000a5
:10129800490300004604000029020000280300005a
:1012a800290400000e0200001103000015040000cc
:1012b800fd0100000303000009040000f50100001f
:1012c800fe02000008040000f7010000030300000c
:1012d80010040000020200001103000021040000b5
:1012e80016020000280300003c040000340200003d
:1012f800490300005f0400005a0200007303000065
:101308008c0400008a020000a5030000c10400004c
:10131800c2020000e0030000ff0400000203000016
:1013280023040000440500004a0300006d04000087
:101338009105000099030000bf040000e5050000c6
:10134800f0030000170500003f0600004c040000f1
:1013580076050000a0060000ae040000da050000d3
:10136800050700001605000043060000700700008e
:1013780082050000b0060000de070000f10500004d
:1013880021070000500800006406000094070000d0
:10139800c5080000da0600000a0800003b09000042
:1013a8005107000082080000b3090000c9070000c7
:0413b800fa0800002f
:020000040000fa
:1013bc000400fa00889fbe00f0ff21004015880051
:1013cc00c622ef00ca22ef00de22ef001628ef0043
:1013dc001428ef001228ef001028ef000e28ef0061
:1013ec000c28ef000a28ef000228ef000428ef0079
:1013fc000628ef000828ef000028ef0094003700c3
:10140c00a0408000b040880090408000a040880040
:10141c0080408000904088007040800080408800b0
:10142c006040800070408800504080006040880020
:10143c004040800050408800304080004040880090
:10144c002040800030408800104080002040880000
:10145c000040800080004000c04328000080400015
:10146c001000780010408800104080008000eb00d5
:10147c0046fc070062052600d3c3230098fc070036
:10148c000004be00204080008000eb003ffc070001
:10149c0002812700c3cd230091fc07000001be0090
:1014ac000800be00bbfb07000004be0030408000fb
:1014bc008000eb0035fc0700c29b2300d3d823002f
:1014cc0087fc07000001be000800be00b1fb07004e
:1014dc000004be00404080008000eb002bfc0700a5
:1014ec00c2ce2900f3df23007dfc07000001be0003
:1014fc000800be00a7fb07000004be00504080009f
:10150c008000eb0021fc0700b213270003e323004b
:10151c0073fc07000001be000800be009dfb070025
:10152c000004be00604080008000eb0017fc070048
:10153c0042cd270033e4230069fc07000001be0004
:10154c000800be0093fb07000004be007040800042
:10155c008000eb000dfc0700b213270003e323000f
:10156c005ffc07000001be000800be0089fb0700fd
:10157c000004be00804080008000eb0003fc0700ec
:10158c00c2ce2900f3df230055fc07000001be008a
:10159c000800be007ffb07000004be0090408000e6
:1015ac008000eb00f9fb0700c29b2300d3d823007b
:1015bc004bfc07000001be000800be0075fb0700d5
:1015cc000004be00a04080008000eb00effb070091
:1015dc0002812700c3cd230041fc07000001be009f
:1015ec000800be006bfb07000004be00b04080008a
:1015fc008000eb00e5fb070062052600d3c3230047
:10160c0037fc07000001be000800be0061fb0700ac
:10161c00008fbe001e01be00c2408800d34088006f
:10162c00c0408000d1408000b7fb0700000078006c
:10163c004580de001017880000dc2500010020002a
:10164c0008000700004080000000e800004088000f
:10165c0001408000002d2000808f500068ff340076
:04166c0065ff3700df
:020000040000fa
:10167000f03fb1000180b10006003500ee03090023
:1016800000000000403fb1000180b100fbff3d00c1
:101690001000b000203fb0000200350000800900bb
:0816a00000000000000006003c
:020000040000fa
:1016a8000008000018000000000000000000000012
:020000040000fa
:0200000401f009
:04000000f3bf00004a
:020000040000fa
:0200000401f009
:04000400ff7f00007a
:020000040000fa
:0200000401f009
:040008007dff000078
:020000040000fa
:0200000401f009
:04001400ffff0000ea
:020000040000fa
:0200000401f009
:04001800ffff0000e6
:00000001FF
